{
    "contractName": "MyNFT",
    "abi": [
        {
            "anonymous": false,
            "inputs": [
                {
                    "indexed": true,
                    "internalType": "address",
                    "name": "_to",
                    "type": "address"
                },
                {
                    "indexed": true,
                    "internalType": "uint256",
                    "name": "_tokenId",
                    "type": "uint256"
                },
                {
                    "indexed": false,
                    "internalType": "bytes32",
                    "name": "_ipfsHash",
                    "type": "bytes32"
                }
            ],
            "name": "Mint",
            "type": "event"
        },
        {
            "anonymous": false,
            "inputs": [
                {
                    "indexed": true,
                    "internalType": "address",
                    "name": "_from",
                    "type": "address"
                },
                {
                    "indexed": true,
                    "internalType": "address",
                    "name": "_to",
                    "type": "address"
                },
                {
                    "indexed": true,
                    "internalType": "uint256",
                    "name": "_tokenId",
                    "type": "uint256"
                }
            ],
            "name": "Transfer",
            "type": "event"
        },
        {
            "inputs": [
                {
                    "internalType": "address",
                    "name": "_to",
                    "type": "address"
                },
                {
                    "internalType": "bytes32",
                    "name": "_ipfsHash",
                    "type": "bytes32"
                }
            ],
            "name": "mintCharacter",
            "outputs": [],
            "stateMutability": "nonpayable",
            "type": "function"
        },
        {
            "inputs": [
                {
                    "internalType": "address",
                    "name": "_to",
                    "type": "address"
                },
                {
                    "internalType": "bytes32",
                    "name": "_ipfsHash",
                    "type": "bytes32"
                }
            ],
            "name": "mintPlanet",
            "outputs": [],
            "stateMutability": "nonpayable",
            "type": "function"
        },
        {
            "inputs": [
                {
                    "internalType": "uint256",
                    "name": "maxNumber",
                    "type": "uint256"
                },
                {
                    "internalType": "uint256",
                    "name": "minNumber",
                    "type": "uint256"
                }
            ],
            "name": "random",
            "outputs": [
                {
                    "internalType": "uint256",
                    "name": "amount",
                    "type": "uint256"
                }
            ],
            "stateMutability": "view",
            "type": "function"
        },
        {
            "inputs": [
                {
                    "internalType": "address",
                    "name": "_to",
                    "type": "address"
                },
                {
                    "internalType": "uint256",
                    "name": "_tokenId",
                    "type": "uint256"
                }
            ],
            "name": "transfer",
            "outputs": [],
            "stateMutability": "nonpayable",
            "type": "function"
        }
    ],
    "bytecode": "600461014090815263626c756560e01b6101605260809081526003610180908152621c995960ea1b6101a05260a05260056101c08181526433b932b2b760d91b6101e05260c05260066102008181526579656c6c6f7760d01b6102205260e05261024082815264776869746560d81b61026052610100526102c060405261028091825264626c61636b60d81b6102a052610120919091526100a2916000916100ba565b5060016006553480156100b457600080fd5b506102d0565b82600681019282156100f3579160200282015b828111156100f357825182906100e39082610211565b50916020019190600101906100cd565b506100ff929150610103565b5090565b808211156100ff5760006101178282610120565b50600101610103565b50805461012c90610188565b6000825580601f1061013c575050565b601f01602090049060005260206000209081019061015a919061015d565b50565b5b808211156100ff576000815560010161015e565b634e487b7160e01b600052604160045260246000fd5b600181811c9082168061019c57607f821691505b6020821081036101bc57634e487b7160e01b600052602260045260246000fd5b50919050565b601f82111561020c57600081815260208120601f850160051c810160208610156101e95750805b601f850160051c820191505b81811015610208578281556001016101f5565b5050505b505050565b81516001600160401b0381111561022a5761022a610172565b61023e816102388454610188565b846101c2565b602080601f831160018114610273576000841561025b5750858301515b600019600386901b1c1916600185901b178555610208565b600085815260208120601f198616915b828110156102a257888601518255948401946001909101908401610283565b50858210156102c05787850151600019600388901b60f8161c191681555b5050505050600190811b01905550565b61057a806102df6000396000f3fe608060405234801561001057600080fd5b506004361061004c5760003560e01c8063a9059cbb14610051578063a9dd122514610066578063aaa182991461008b578063d1445aa71461009e575b600080fd5b61006461005f3660046102eb565b6100b1565b005b610079610074366004610315565b61012d565b60405190815260200160405180910390f35b6100646100993660046102eb565b61019e565b6100646100ac3660046102eb565b610295565b6000818152600760205260409020546001600160a01b031633146100d457600080fd5b60008181526007602052604080822080546001600160a01b0319166001600160a01b0386169081179091559051839233917fddf252ad1be2c89b69c2b068fc378daa952ba7f163c4a11628f55a4df523b3ef9190a45050565b6000610139828461034d565b604080514260208201526bffffffffffffffffffffffff193360601b16918101919091524360548201526074016040516020818303038152906040528051906020012060001c6101899190610360565b90506101958282610382565b90505b92915050565b60065460006101ae81600561012d565b600681106101be576101be610395565b6000838152600860205260409020916101d891018261044a565b5060006101e76000600561012d565b600681106101f7576101f7610395565b60008381526009602052604090209161021191018261044a565b50600081815260076020526040812080546001600160a01b0319166001600160a01b03861617905560068054916102478361052b565b919050555080836001600160a01b03167f3dec94b8abc8f801eaade1616d3aadd3114b556a284267905e0a053b2df398928460405161028891815260200190565b60405180910390a3505050565b60065460006102a581600561012d565b600681106102b5576102b5610395565b60008381526008602052604090209161021191018261044a565b80356001600160a01b03811681146102e657600080fd5b919050565b600080604083850312156102fe57600080fd5b610307836102cf565b946020939093013593505050565b6000806040838503121561032857600080fd5b50508035926020909101359150565b634e487b7160e01b600052601160045260246000fd5b8181038181111561019857610198610337565b60008261037d57634e487b7160e01b600052601260045260246000fd5b500690565b8082018082111561019857610198610337565b634e487b7160e01b600052603260045260246000fd5b600181811c908216806103bf57607f821691505b6020821081036103df57634e487b7160e01b600052602260045260246000fd5b50919050565b634e487b7160e01b600052604160045260246000fd5b601f82111561044557600081815260208120601f850160051c810160208610156104225750805b601f850160051c820191505b818110156104415782815560010161042e565b5050505b505050565b818103610455575050565b61045f82546103ab565b67ffffffffffffffff811115610477576104776103e5565b61048b8161048584546103ab565b846103fb565b6000601f8211600181146104bf57600083156104a75750848201545b600019600385901b1c1916600184901b178455610524565b600085815260209020601f19841690600086815260209020845b838110156104f957828601548255600195860195909101906020016104d9565b50858310156105175781850154600019600388901b60f8161c191681555b50505060018360011b0184555b5050505050565b60006001820161053d5761053d610337565b506001019056fea2646970667358221220eb3e8f63bfe349e191a805316448c0aa676be3f427f35ad02d8a9f93b997ffcd64736f6c63430008130033",
    "sourcePath": "c:/Users/esnar/source/repos/NFT-MetaCoin-React/truffle/contracts/MyNFT.sol",
    "compiler": {
        "name": "solc",
        "version": "0.8.19+commit.7dd6d404"
    },
    "functionHashes": {
        "mintCharacter(address,bytes32)": "aaa18299",
        "mintPlanet(address,bytes32)": "d1445aa7",
        "random(uint256,uint256)": "a9dd1225",
        "transfer(address,uint256)": "a9059cbb"
    },
    "gasEstimates": {
        "creation": {
            "codeDepositCost": "280400",
            "executionCost": "infinite",
            "totalCost": "infinite"
        },
        "external": {
            "mintCharacter(address,bytes32)": "2566",
            "mintPlanet(address,bytes32)": "2588",
            "random(uint256,uint256)": "infinite",
            "transfer(address,uint256)": "28744"
        }
    }
}